# destination (TO) = 0xE57bFE9F44b819898F47BF37E5AF72a0783e1141
# amount = 1000000
txTest = {
    "chainId": 131277322940537,
    "from": "0x001d3F1ef827552Ae1114027BD3ECF1f086bA0F9",
    "gas": 50872,
    "gasPrice": 1000000000,
    "nonce": 0,
    "value": 0,
    "to": "0x2946259E0334f33A064106302415aD3391BeD384",
    "data": "0xa9059cbb000000000000000000000000e57bfe9f44b819898f47bf37e5af72a0783e114100000000000000000000000000000000000000000000000000000000000f4240",
}
txTestRaw = {
    "raw_transaction": "0xf8ae80843b9aca0082c6b8942946259e0334f33a064106302415ad3391bed38480b844a9059cbb000000000000000000000000e57bfe9f44b819898f47bf37e5af72a0783e114100000000000000000000000000000000000000000000000000000000000f424086eecac466e115a029d833afd536f32f48f12dd13fc81feb5df967d47985033322a6d395ce83a17ca017cf771d0d3c88804aec886ff904c8c80e26a5c67d116e2aa8683c42623e62c3",
    "hash": "0x7b23443f75385a17fdb3fadca06d4c5b9959ce05c73cfdfd14d1ef031a87ab27",
    "r": 18926822487414529228294994832749974094026225810888272894273077484407792836988,
    "s": 10769754950871935622200689995099323939870018376022702663942059589404672811715,
    "v": 262554645881109,
}

txTest_type2 = {
    "type": 2,
    "chainId": 131277322940537,
    "from": "0x001d3F1ef827552Ae1114027BD3ECF1f086bA0F9",
    "gas": 55959,
    "maxPriorityFeePerGas": 0,
    "maxFeePerGas": 174957127,
    "nonce": 0,
    "value": 0,
    "to": "0x2946259E0334f33A064106302415aD3391BeD384",
    "data": "0xa9059cbb000000000000000000000000e57bfe9f44b819898f47bf37e5af72a0783e114100000000000000000000000000000000000000000000000000000000000f4240",
}
txTestRaw_type2 = {
    "raw_transaction": "0x02f8b1867765623370798080840a6da24782da97942946259e0334f33a064106302415ad3391bed38480b844a9059cbb000000000000000000000000e57bfe9f44b819898f47bf37e5af72a0783e114100000000000000000000000000000000000000000000000000000000000f4240c001a0e481c80f28b13f2c368f6dae614bba50a383e5bbbabdda1bf075dcc4ea997b71a03daee7848eb53d3f9401fcecc08f269e723ad2581b7d24e3e8020e04723a2c26",
    "hash": "0x31d0780a5da3c87738a2edd7653e9d51783b61db84e10601f825d1b444062901",
    "r": 103356633506295113005682067143622628100177058795356861913830229658203623881585,
    "s": 27900113029998660168700771925809490747014268698927177566038046035986976746534,
    "v": 1,
}
txReceipt_type2 = {
    "address": "0x2946259E0334f33A064106302415aD3391BeD384",
    "blockHash": "0x9fe6431ce9e83c42aea84fdf9096b81c26597ae944b6e5abbc8929457e5926ba",
    "blockNumber": 15,
    "data": "0x00000000000000000000000000000000000000000000000000000000000f4240",
    "logIndex": 0,
    "topics": [
        "0xddf252ad1be2c89b69c2b068fc378daa952ba7f163c4a11628f55a4df523b3ef",
        "0x000000000000000000000000001d3f1ef827552ae1114027bd3ecf1f086ba0f9",
        "0x000000000000000000000000e57bfe9f44b819898f47bf37e5af72a0783e1141",
    ],
    "transactionHash": "0x31d0780a5da3c87738a2edd7653e9d51783b61db84e10601f825d1b444062901",
    "transactionIndex": 0,
    "type": "mined",
}
