txTest = {
    "chainId": 131277322940537,
    "from": "0x001d3F1ef827552Ae1114027BD3ECF1f086bA0F9",
    "gas": 36717,
    "gasPrice": 1000000000,
    "nonce": 0,
    "value": 0,
    "to": "0xD24260C102B5D128cbEFA0F655E5be3c2370677C",
    "data": "0x617ba0370000000000000000000000002946259e0334f33a064106302415ad3391bed3840000000000000000000000000000000000000000000000000000000059682f00000000000000000000000000001d3f1ef827552ae1114027bd3ecf1f086ba0f90000000000000000000000000000000000000000000000000000000000000000",
}
txTestRaw = {
    "raw_transaction": "0xf8ee80843b9aca00828f6d94d24260c102b5d128cbefa0f655e5be3c2370677c80b884617ba0370000000000000000000000002946259e0334f33a064106302415ad3391bed3840000000000000000000000000000000000000000000000000000000059682f00000000000000000000000000001d3f1ef827552ae1114027bd3ecf1f086ba0f9000000000000000000000000000000000000000000000000000000000000000086eecac466e116a08d4122eb7cddf27695db304d7780339b2187c9986de882ceef8595ea6578f8eaa0263c575b7fc5e7657050b56a38649397cdc2305ed330cb1029b65dd99b2b25d6",
    "hash": "0x6f02cfdad80293be74dc43df5d718ace8447d1ed217354ea19e5d7a6a2ccf1e2",
    "r": 63891197717564441318703012162748303468195193124816131106111004858916900763882,
    "s": 17294501988794217288503337647067196156756758198089060514220386855765467145686,
    "v": 262554645881110,
}

txTest2 = {
    "chainId": 1,
    "from": "0x406617A94B991143d92dC3ff53cA29BcE1A407c3",
    "gas": 273179,
    "gasPrice": 21207742153,
    "nonce": 0,
    "value": 0,
    "to": "0x87870Bca3F3fD6335C3F4ce8392D69350B4fA4E2",
    "data": "0x617ba037000000000000000000000000dac17f958d2ee523a2206206994597c13d831ec70000000000000000000000000000000000000000000000000000000059682f00000000000000000000000000406617a94b991143d92dc3ff53ca29bce1a407c30000000000000000000000000000000000000000000000000000000000000000",
}
txTestRaw2 = {
    "raw_transaction": "0xf8ea808504f01476c983042b1b9487870bca3f3fd6335c3f4ce8392d69350b4fa4e280b884617ba037000000000000000000000000dac17f958d2ee523a2206206994597c13d831ec70000000000000000000000000000000000000000000000000000000059682f00000000000000000000000000406617a94b991143d92dc3ff53ca29bce1a407c3000000000000000000000000000000000000000000000000000000000000000025a0c3fb8f3c971a21b7aa6d4aacf37aca5f3ec082e9c54590abc305b715ca52acbfa059d1e72aae1dd02fa7969fabb2169c51f1ef3a6e9b6fd78879e624953c4460fe"
}
