txTest = {
    "chainId": 131277322940537,
    "from": "0x001d3F1ef827552Ae1114027BD3ECF1f086bA0F9",
    "to": "0xF7Edc8FA1eCc32967F827C9043FcAe6ba73afA5c",
    "data": "0x",
    "nonce": 0,
    "value": 10000000000000000000,
    "gas": 23100,
    "type": 2,
    "maxPriorityFeePerGas": 0,
    "maxFeePerGas": 174957127,
}
txTestRaw = {
    "raw_transaction": "0x02f874867765623370798080840a6da247825a3c94f7edc8fa1ecc32967f827c9043fcae6ba73afa5c888ac7230489e8000080c080a064313c4db5ffcbbd39e93acaf91d5cd859109b0cc74eead2039a0d35a65b0c0ba022c26fab277c7fa399c9e4964159dcf166a9c3fd808a66ec9c80397423c0754b",
    "hash": "0x9379e79dfcfdf800db0cafe7fba699e7c303eb228fc8569b32a3c62a628d4475",
    "r": 45318276564364233577661773008491542500806321796662878945247165674056568212491,
    "s": 15722175890551832724392769319688072439851811654888673880770055833350278509899,
    "v": 0,
}
